:100000000C9438000C9460000C9460000C94600018
:100010000C9460000C9460000C9460000C946000E0
:100020000C9460000C9460000C9460000C946000D0
:100030000C9460000C9460000C9460000C946000C0
:100040000C9460000C9460000C9460000C946000B0
:100050000C9460000C9460000C9460000C946000A0
:100060000C9499000C9460007E012F0785013607DF
:1000700011241FBECFEFD8E0DEBFCDBF11E0A0E05E
:10008000B1E0E0EFF1E102C005900D92A431B107BB
:10009000D9F711E0A4E1B1E001C01D92A535B10787
:1000A000E1F710E0CCE6D0E004C02297FE010E9408
:1000B000B407C836D107C9F70E94E4000C94EB08D6
:1000C0000C94000080911C018093BB008F5F809393
:1000D0001C0108950F931F93CF93DF93CBEBD0E0D8
:1000E0008881E4E1F1E08093140110921501888188
:1000F000809316011382888180931801158288816C
:1001000080931A01178203E211E0C80160E071E0F8
:100110000E948D056881C80170E00E941A06C8011E
:1001200062E071E00E948D05DF91CF911F910F91E8
:1001300008951F920F920FB60F9211242F933F93A1
:100140004F935F936F937F938F939F93AF93BF93DF
:10015000EF93FF930E941101FF91EF91BF91AF9137
:100160009F918F917F916F915F914F913F912F91CF
:100170000F900FBE0F901F9018950F931F93CF9362
:10018000DF93CDE1D1E0CE016AE670E00E946F011D
:10019000CE0162E670E00E947301CE0168E00E9429
:1001A000660183E291E040E051EE60E070E020E41F
:1001B00030E001E010E00E941C047894DF91CF91C0
:1001C0001F910F91089508950E94BD00FFCF2AE06E
:1001D00031E0FC013183208308958130910559F489
:1001E0008FEF6F3F780789F48AE091E090931E01CA
:1001F00080931D010895009741F48FEF6F3F7807BA
:1002000021F48DE191E00E94E7000895CF93DF9300
:10021000EC010E94E700CE010E944007DF91CF91E0
:1002200008958091B90090E0887F9070803A9105A0
:1002300051F1813A91054CF480369105B9F080383E
:100240009105C1F00097C9F10895803B910541F1F6
:10025000813B910524F4883A9105B9F518C0883B93
:100260009105F1F0803C910581F523C085EC8093E8
:10027000BC000895E0911F01F0912001099585ECE3
:100280008093BC00089585EC8093BC000895E091B4
:100290002101F0912201099585EC8093BC0008951D
:1002A000E0912101F0912201099585EC8093BC0039
:1002B000089585EC8093BC000895ECEBF0E080E1BC
:1002C00080830000000085EC80830895F894660F19
:1002D0006093BA0085EC8093BC0078940895FC018B
:1002E000738362830895FC01758364830895F89491
:1002F0001092BC001092BA007894089581E090E0CA
:100300006FEF7FEF0E94ED00089580E090E06FEFC7
:100310007FEF0E94ED000895FC01808191810E9491
:1003200040070895FC016730710509F460C068302A
:10033000710544F46530710571F06630710509F09E
:10034000C2C02DC06830710509F479C069307105EB
:1003500009F0B9C097C0A38DB48D6C9181E090E095
:10036000AC0102A402C0440F551F0A94E2F79C019D
:1003700001A402C0220F331F0A94E2F72423209520
:1003800026232C93A18DB28D2C9103A402C0880F3B
:10039000991F0A94E2F7809582238C930895A38D88
:1003A000B48D4C9181E090E09C0101A402C0220F29
:1003B000331F0A94E2F7242B2C93A38DB48D4C9118
:1003C0009C0102A402C0220F331F0A94E2F7209579
:1003D00024232C93A18DB28D2C9103A402C0880FED
:1003E000991F0A94E2F7809582238C930895A38D38
:1003F000B48D4C9181E090E09C0101A402C0220FD9
:10040000331F0A94E2F7209524232C93A38DB48DF7
:100410004C919C0102A402C0220F331F0A94E2F700
:10042000242B2C93A18DB28D2C9103A402C0880F94
:10043000991F0A94E2F7809582238C930895A38DE7
:10044000B48D6C9181E090E0AC0101A402C0440F36
:10045000551F0A94E2F79C0102A402C0220F331F29
:100460000A94E2F7242B262B2C93A18DB28D2C918C
:1004700003A402C0880F991F0A94E2F78095822393
:100480008C930895A38DB48D6C9181E090E0AC01C4
:1004900001A402C0440F551F0A94E2F79C0102A474
:1004A00002C0220F331F0A94E2F7242B262B2C9331
:1004B000A18DB28D2C9103A402C0880F991F0A94BC
:1004C000E2F7822B8C930895FC01A38DB48D8C915F
:1004D00090E001A402C0959587950A94E2F7382F21
:1004E00031709C91892F90E002A402C09595879568
:1004F0000A94E2F7282F2170A18DB28D9C91892F4B
:1005000090E003A402C0959587950A94E2F7482FDE
:10051000417080FD0EC0222329F4332389F031304D
:1005200041F411C0213029F4332381F0313039F402
:1005300010C0413021F4213011F4313069F00895B8
:1005400025E030E00BC026E030E008C027E030E0D6
:1005500005C028E030E002C029E030E0822F932F70
:100560000895FC0162307105F1F063307105B4F556
:100570006115710509F047C0A38DB48D4C9181E0E0
:1005800090E09C0100A402C0220F331F0A94E2F7FE
:1005900007A002C0880F991F0A94E2F78223809572
:1005A00084238C930895A38DB48D4C9181E090E0C9
:1005B0009C0107A002C0220F331F0A94E2F7209586
:1005C00024232C93A38DB48D2C9100A402C0880FFA
:1005D000991F0A94E2F7822B8C930895A38DB48D12
:1005E0004C9181E090E09C0107A002C0220F331FD4
:1005F0000A94E2F700A402C0880F991F0A94E2F758
:10060000822B842B8C930895FC01A38DB48D8C9147
:1006100090E007A002C0959587950A94E2F72C9187
:1006200030E000A402C0359527950A94E2F72170C6
:10063000382F317080FD05C0222341F0213029F48C
:1006400008C0313011F4222339F0089520E030E061
:1006500005C022E030E002C023E030E0822F932F7B
:100660000895FC016130710599F062307105F1F473
:10067000A38DB48D4C9121E030E0C90106A002C0E9
:10068000880F991F0A94E2F7809584238C9308952C
:10069000A38DB48D4C9121E030E0C90106A002C0C9
:1006A000880F991F0A94E2F7842B8C930895CF93B7
:1006B000DF93EC016C8B662361F586EC90E09E8BFA
:1006C0008D8B80EC90E0988F8F8B81EC90E09A8FEF
:1006D000898F82EC90E09C8F8B8F85EC90E09E8FD1
:1006E0008D8F84EC90E098A38F8F43E049A334E092
:1006F0003AA325E02BA391E09CA387E08DA34EA312
:100700003FA328A799A792E09AA79BA796E09CA74A
:100710008DA7CE0160E070E00E94B102CE0161E0E1
:1007200070E00E943103CE0168E070E00E94920107
:10073000DF91CF9108958130910551F48FEF6F3F94
:10074000780781F483E291E060E00E945703089506
:10075000009741F48FEF6F3F780721F483E291E037
:100760000E948C010895FC01A38DB48D8C9190E0C2
:1007700006A002C0959587950A94E2F7282F21706C
:1007800080FF03C0213021F0089521E030E002C055
:1007900022E030E0822F932F0895FC0122853385DB
:1007A000822F932F0895FC01A18DB28D2C9181E0B1
:1007B00090E001A002C0880F991F0A94E2F730E090
:1007C0002823392312161306FCF42C9180958223DA
:1007D0008C9380819181958384839783868391878D
:1007E00080871386128615861486A18DB28D4C9152
:1007F00021E030E0C90101A002C0880F991F0A94CE
:10080000E2F7842B8C930CC0808191819583848343
:100810009783868391878087138612861586148630
:1008200081E00895FC01868597850895FC01248563
:100830003585822F932F08958F929F92AF92BF920A
:10084000CF92DF92EF92FF920F931F93CF93DF939C
:10085000EC015A016B014901EE84FF84C7010E943B
:10086000B807282F392F39832883E20EF31EFB8225
:10087000EA823D832C833F832E83398728871B861A
:100880001A861D861C869F868E86A88AB98ACA8A81
:10089000DB8A01301105A1F1013011050CF458C0BB
:1008A0000230110509F07CC060E072E18AE790E057
:1008B000A60195010E9490072150304040405040D1
:1008C0005695479537952795EB8DFC8D608181E096
:1008D00090E0AC010CA402C0440F551F0A94E2F74B
:1008E000462B4083EB8DFC8D40810DA402C0880F08
:1008F000991F0A94E2F780958423808380E053C097
:1009000060E079E08DE390E0A60195010E949007F8
:100910002150304040405040569547953795279597
:10092000EB8DFC8D608181E090E0AC010DA402C0F4
:10093000440F551F0A94E2F70CA402C0880F991FB8
:100940000A94E2F7842380958623808381E02BC07C
:1009500060E874E88EE190E0A60195010E9490079E
:100960002150304040405040569547953795279547
:10097000EB8DFC8D608181E090E0AC010DA402C0A4
:10098000440F551F0A94E2F70CA402C0880F991F68
:100990000A94E2F7842380958623808380E003C055
:1009A00080E020E030E0EF89F88D90E00CA002C0FC
:1009B000880F991F0A94E2F78083ED8DFE8D3083B6
:1009C000EF8DF8A12083E98DFA8D408181E090E0E0
:1009D0009C0109A002C0220F331F0A94E2F7242BC6
:1009E0002083E98DFA8D40819C010AA002C0220F6C
:1009F000331F0A94E2F70DA002C0880F991F0A94D2
:100A0000E2F7822B842B80837894DF91CF911F9122
:100A10000F91FF90EF90DF90CF90BF90AF909F909D
:100A20008F900895FC0182859385009731F16623AC
:100A3000A9F0A481B5818D91B583A48322813381EE
:100A4000A217B30721F420813181358324832285C5
:100A5000338521503040338722870895A681B7819E
:100A60008D91B783A68322813381A217B30731F416
:100A70002081318137832683089580E00895FC0129
:100A8000A789B08D23A18C9190E0022E02C095958C
:100A900087950A94E2F780FFF6CF0588F689E02D66
:100AA000608308950F931F93CF93DF938C01EB0125
:100AB000FB016491662349F02196C8010E943F051D
:100AC000FE01219664916623C1F7DF91CF911F91BA
:100AD0000F910895CF92DF92EF92FF920F931F93A1
:100AE000CF93DF936C018B017A014115510561F0C1
:100AF000C0E0D0E0F80161918F01C6010E943F057E
:100B00002196CE15DF05B0F3DF91CF911F910F91A4
:100B1000FF90EF90DF90CF9008950F931F93CF93A6
:100B2000DF938C01EB016881662339F02196C801BF
:100B30000E943F0569916623D1F7DF91CF911F9104
:100B40000F9108956F927F928F929F92AF92BF9272
:100B5000CF92DF92FF920F931F93DF93CF93CDB786
:100B6000DEB72A970FB6F894DEBF0FBECDBF4C019B
:100B7000CB01BA01FF243E010894611C711C0F2EA9
:100B8000FAE0AF2EF0E0BF2EF0E0CF2EF0E0DF2E47
:100B9000F02D83010F0D111DA60195010E949007F4
:100BA000605DF8016083F394622F732F842F952F7B
:100BB000611571058105910561F7FF2069F08E01CE
:100BC0000F5F1F4FFA94F801EF0DF11DC401608112
:100BD0000E943F05FF20B1F72A960FB6F894DEBFBA
:100BE0000FBECDBFCF91DF911F910F91FF90DF908E
:100BF000CF90BF90AF909F908F907F906F9008950F
:100C0000EF92FF920F931F93CF93DF93EC017A0142
:100C10008B0177231CF46DE20E943F05CE01B801E1
:100C2000A7010E94A205DF91CF911F910F91FF9024
:100C3000EF9008959B01A901662757FD6095762FD7
:100C40000E9400060895AB0160E070E00E94A205DA
:100C50000895AF92BF92CF92DF92EF92FF920F93DF
:100C60001F93CF93DF936C01EB01B42E888188230F
:100C700039F1FB01319610E01F5F81918823E1F784
:100C8000C6010E94CD03F82EF601848195819783D9
:100C90008683FF20B9F000E0AA24FE01E00FF11DD9
:100CA000E080C6016B2D0E941205E81611F40F5F5B
:100CB00001C00A2D011741F0FA9479F780E005C0D0
:100CC00080E003C080E001C081E0DF91CF911F91FF
:100CD0000F91FF90EF90DF90CF90BF90AF9008956D
:100CE000CF92DF92EF92FF920F931F93CF93DF93F8
:100CF0006C017B01142FEB012196FB018491882369
:100D000049F0CE0100E00F5FFC010196E491EE2373
:100D1000D1F701C000E0802F90E001960E94B80753
:100D2000282F392FF701E490EE2049F0A82FB92F92
:100D3000ED929D01FE012196E490EE20C9F7F901A4
:100D40001082E901C01BD109C601BE01412F0E94DA
:100D50002906182FCE010E945208812FDF91CF91D2
:100D60001F910F91FF90EF90DF90CF900895FB01BE
:100D7000A085B1858C938085918501969187808728
:100D8000228133818217930721F480819181918799
:100D9000808742855385868597854817590799F43A
:100DA00084859585019695878487848195810196B0
:100DB0002817390729F480819181958384830895C8
:100DC000958384830895828593850196938782878E
:100DD00008951F920F920FB60F9211240F931F9335
:100DE0002F933F934F935F936F937F938F939F9333
:100DF000AF93BF93EF93FF93DF93CF93CDB7DEB75E
:100E0000AE97DEBFCDBF8091C600DE011196E3E252
:100E1000F1E09EE201900D929150E1F78E010F5F9B
:100E20001F4FB8010E94B706C8010E948C01AE9600
:100E3000DEBFCDBFCF91DF91FF91EF91BF91AF9119
:100E40009F918F917F916F915F914F913F912F91E2
:100E50001F910F910F900FBE0F901F90189581E07A
:100E600090E06FEF7FEF0E949B03089580E090E099
:100E70006FEF7FEF0E949B0308950E94B8070895CB
:100E80000E9452080895DF93CF9300D0CDB7DEB70C
:100E90008091510190915201009721F49E012455B7
:100EA000314005C09E012F5F3F4F281B390B822F19
:100EB000932F0F900F90CF91DF9108951F93CF93B1
:100EC000DF93EC01162F662361F4FC0184918823E3
:100ED00041F0CE0101961F5FFC010196E491EE23E3
:100EE000D1F7812F90E001960E94B807282F392F63
:100EF000FE014491442351F02196A82FB92F4D9320
:100F00009D01FE01219644914423C9F7F901108205
:100F1000211B3109822F932FDF91CF911F910895CB
:100F2000A1E21A2EAA1BBB1BFD010DC0AA1FBB1FED
:100F3000EE1FFF1FA217B307E407F50720F0A21B5F
:100F4000B30BE40BF50B661F771F881F991F1A94CC
:100F500069F760957095809590959B01AC01BD01F6
:100F6000CF010895EE0FFF1F0590F491E02D099435
:100F7000CF93DF938230910510F482E090E0E0910E
:100F80005301F091540140E050E020E030E026C0F1
:100F90006081718168177907E0F06817790781F43B
:100FA000828193812115310531F0D90113969C93EB
:100FB0008E9312972BC0909354018093530126C0B7
:100FC0004115510519F06417750718F4AB01E901D3
:100FD000DF019F0172816381E72FF62F3097C1F601
:100FE0004115510501F1481B590B4430510580F45E
:100FF00012968D919C911397209719F09B838A8369
:1010000004C09093540180935301FD01329646C071
:10101000FD01E40FF51F81939193425050401196CA
:101020005C934E933BC020915101309152012115A8
:10103000310541F42091100130911101309352019A
:101040002093510120911201309113012115310596
:1010500041F42DB73EB740910E0150910F01241B72
:10106000350BE0915101F0915201E217F307A0F422
:101070002E1B3F0B2817390778F0AC014E5F5F4FEE
:101080002417350748F04E0F5F1F509352014093CD
:1010900051018193919302C0E0E0F0E0CF01DF9134
:1010A000CF910895CF93DF93009709F491C0FC018D
:1010B000329713821282609153017091540161152D
:1010C000710581F420813181280F391F80915101F0
:1010D000909152018217930799F5F0935201E09392
:1010E000510176C0DB0180E090E002C0CD01D90162
:1010F000AE17BF0748F412962D913C911397211516
:101100003105A1F7CD0121C0B383A283EF0149913D
:1011100059919E01240F351FA217B30779F42D9121
:101120003C911197240F351F2E5F3F4F3183208351
:1011300012962D913C91139733832283009729F4C3
:10114000F0935401E093530143C0DC011396FC93E8
:10115000EE9312974D915D91A40FB51FEA17FB070F
:1011600069F420813181240F351F2E5F3F4FEC0140
:1011700039832883228133813B832A83E0E0F0E0B6
:1011800002C0FB01BC01DB0112968D919C9113976B
:101190000097B9F79B012E5F3F4F8D919C9111975E
:1011A000820F931F409151015091520148175907E6
:1011B00079F4309729F4109254011092530102C02F
:1011C00013821282225030403093520120935101F9
:1011D000DF91CF91089510E0CCE6D0E004C0FE018D
:1011E0000E94B4072296C037D107C9F7F894FFCF01
:1011F0003E000A0D00FF00000000E700060120008D
:041200005501000094
:00000001FF
